{
  "contractName": "RolesControl",
  "abi": [
    {
      "anonymous": false,
      "inputs": [
        {
          "indexed": false,
          "internalType": "string",
          "name": "",
          "type": "string"
        }
      ],
      "name": "dataProviderAdded",
      "type": "event"
    },
    {
      "anonymous": false,
      "inputs": [
        {
          "indexed": false,
          "internalType": "string",
          "name": "",
          "type": "string"
        }
      ],
      "name": "fileAdd",
      "type": "event"
    },
    {
      "constant": true,
      "inputs": [
        {
          "internalType": "string",
          "name": "_CID",
          "type": "string"
        },
        {
          "internalType": "string",
          "name": "_user",
          "type": "string"
        },
        {
          "internalType": "uint256",
          "name": "_startingRow",
          "type": "uint256"
        },
        {
          "internalType": "uint256",
          "name": "_endingRow",
          "type": "uint256"
        },
        {
          "internalType": "string",
          "name": "_column",
          "type": "string"
        }
      ],
      "name": "IsUserValid",
      "outputs": [
        {
          "internalType": "bool",
          "name": "",
          "type": "bool"
        }
      ],
      "payable": false,
      "stateMutability": "view",
      "type": "function"
    },
    {
      "constant": false,
      "inputs": [
        {
          "internalType": "string",
          "name": "_CID",
          "type": "string"
        },
        {
          "internalType": "string",
          "name": "_metaDataCID",
          "type": "string"
        },
        {
          "internalType": "string[]",
          "name": "_users",
          "type": "string[]"
        },
        {
          "internalType": "uint256",
          "name": "_startingRow",
          "type": "uint256"
        },
        {
          "internalType": "uint256",
          "name": "_endingRow",
          "type": "uint256"
        },
        {
          "internalType": "string[]",
          "name": "_columns",
          "type": "string[]"
        }
      ],
      "name": "addFile",
      "outputs": [
        {
          "components": [
            {
              "internalType": "string",
              "name": "CID",
              "type": "string"
            },
            {
              "internalType": "string",
              "name": "metaDataCID",
              "type": "string"
            },
            {
              "components": [
                {
                  "internalType": "string[]",
                  "name": "users",
                  "type": "string[]"
                },
                {
                  "internalType": "uint256",
                  "name": "startingRow",
                  "type": "uint256"
                },
                {
                  "internalType": "uint256",
                  "name": "endingRow",
                  "type": "uint256"
                },
                {
                  "internalType": "string[]",
                  "name": "columns",
                  "type": "string[]"
                }
              ],
              "internalType": "struct RolesControl.AccessControl",
              "name": "accessControl",
              "type": "tuple"
            }
          ],
          "internalType": "struct RolesControl.File",
          "name": "",
          "type": "tuple"
        }
      ],
      "payable": false,
      "stateMutability": "nonpayable",
      "type": "function"
    },
    {
      "constant": false,
      "inputs": [
        {
          "internalType": "string",
          "name": "_Address",
          "type": "string"
        },
        {
          "internalType": "string",
          "name": "_CID",
          "type": "string"
        },
        {
          "internalType": "string",
          "name": "_metaDataCID",
          "type": "string"
        },
        {
          "internalType": "string[]",
          "name": "_users",
          "type": "string[]"
        },
        {
          "internalType": "uint256",
          "name": "_startingRow",
          "type": "uint256"
        },
        {
          "internalType": "uint256",
          "name": "_endingRow",
          "type": "uint256"
        },
        {
          "internalType": "string[]",
          "name": "_columns",
          "type": "string[]"
        }
      ],
      "name": "addDataProvider",
      "outputs": [],
      "payable": false,
      "stateMutability": "nonpayable",
      "type": "function"
    }
  ],
  "bytecode": "0x608060405234801561001057600080fd5b506110d0806100206000396000f3fe608060405234801561001057600080fd5b50600436106100415760003560e01c8063a1d57a7f14610046578063f087af4614610076578063fada76a6146100a6575b600080fd5b610060600480360361005b9190810190610a58565b6100c2565b60405161006d9190610e52565b60405180910390f35b610090600480360361008b9190810190610859565b610379565b60405161009d9190610ead565b60405180910390f35b6100c060048036036100bb9190810190610942565b610409565b005b600080600090505b60008054905081101561036a57866040516020016100e89190610e24565b604051602081830303815290604052805190602001206000828154811061010b57fe5b906000526020600020906007020160010160000160405160200161012f9190610e3b565b60405160208183030381529060405280519060200120141561035d57600080828154811061015957fe5b906000526020600020906007020160010160020160000180549050905060008090505b8181101561035a57876040516020016101959190610e24565b60405160208183030381529060405280519060200120600084815481106101b857fe5b906000526020600020906007020160010160020160000182815481106101da57fe5b906000526020600020016040516020016101f49190610e3b565b6040516020818303038152906040528051906020012014801561026b5750866000848154811061022057fe5b9060005260206000209060070201600101600201600101541115801561026a5750856000848154811061024f57fe5b90600052602060002090600702016001016002016002015410155b5b1561034d5760008090505b6000848154811061028357fe5b90600052602060002090600702016001016002016003018054905081101561034b57856040516020016102b69190610e24565b60405160208183030381529060405280519060200120600085815481106102d957fe5b906000526020600020906007020160010160020160030182815481106102fb57fe5b906000526020600020016040516020016103159190610e3b565b60405160208183030381529060405280519060200120141561033e576001945050505050610370565b8080600101915050610276565b505b808060010191505061017c565b50505b80806001019150506100ca565b50600090505b95945050505050565b610381610560565b610389610560565b604051806060016040528089815260200188815260200160405180608001604052808981526020018881526020018781526020018681525081525090507f5c23519bf26ca02e0dd85e55f1e567e3d1c3996cd20f5393609f6eebf7a16d616040516103f390610e6d565b60405180910390a1809150509695505050505050565b610411610560565b61041f878787878787610379565b9050600060405180604001604052808a81526020018381525090806001815401808255809150509060018203906000526020600020906007020160009091929091909150600082015181600001908051906020019061047f929190610587565b5060208201518160010160008201518160000190805190602001906104a5929190610587565b5060208201518160010190805190602001906104c2929190610587565b5060408201518160020160008201518160000190805190602001906104e8929190610607565b5060208201518160010155604082015181600201556060820151816003019080519060200190610519929190610607565b50505050505050507f5c23519bf26ca02e0dd85e55f1e567e3d1c3996cd20f5393609f6eebf7a16d6160405161054e90610e8d565b60405180910390a15050505050505050565b60405180606001604052806060815260200160608152602001610581610667565b81525090565b828054600181600116156101000203166002900490600052602060002090601f016020900481019282601f106105c857805160ff19168380011785556105f6565b828001600101855582156105f6579182015b828111156105f55782518255916020019190600101906105da565b5b509050610603919061068f565b5090565b828054828255906000526020600020908101928215610656579160200282015b82811115610655578251829080519060200190610645929190610587565b5091602001919060010190610627565b5b50905061066391906106b4565b5090565b6040518060800160405280606081526020016000815260200160008152602001606081525090565b6106b191905b808211156106ad576000816000905550600101610695565b5090565b90565b6106dd91905b808211156106d957600081816106d091906106e0565b506001016106ba565b5090565b90565b50805460018160011615610100020316600290046000825580601f106107065750610725565b601f016020900490600052602060002090810190610724919061068f565b5b50565b600082601f83011261073957600080fd5b813561074c61074782610efc565b610ecf565b9150818183526020840193506020810190508360005b838110156107925781358601610778888261079c565b845260208401935060208301925050600181019050610762565b5050505092915050565b600082601f8301126107ad57600080fd5b81356107c06107bb82610f24565b610ecf565b915080825260208301602083018583830111156107dc57600080fd5b6107e7838284611023565b50505092915050565b600082601f83011261080157600080fd5b813561081461080f82610f50565b610ecf565b9150808252602083016020830185838301111561083057600080fd5b61083b838284611023565b50505092915050565b60008135905061085381611076565b92915050565b60008060008060008060c0878903121561087257600080fd5b600087013567ffffffffffffffff81111561088c57600080fd5b61089889828a016107f0565b965050602087013567ffffffffffffffff8111156108b557600080fd5b6108c189828a016107f0565b955050604087013567ffffffffffffffff8111156108de57600080fd5b6108ea89828a01610728565b94505060606108fb89828a01610844565b935050608061090c89828a01610844565b92505060a087013567ffffffffffffffff81111561092957600080fd5b61093589828a01610728565b9150509295509295509295565b600080600080600080600060e0888a03121561095d57600080fd5b600088013567ffffffffffffffff81111561097757600080fd5b6109838a828b016107f0565b975050602088013567ffffffffffffffff8111156109a057600080fd5b6109ac8a828b016107f0565b965050604088013567ffffffffffffffff8111156109c957600080fd5b6109d58a828b016107f0565b955050606088013567ffffffffffffffff8111156109f257600080fd5b6109fe8a828b01610728565b9450506080610a0f8a828b01610844565b93505060a0610a208a828b01610844565b92505060c088013567ffffffffffffffff811115610a3d57600080fd5b610a498a828b01610728565b91505092959891949750929550565b600080600080600060a08688031215610a7057600080fd5b600086013567ffffffffffffffff811115610a8a57600080fd5b610a96888289016107f0565b955050602086013567ffffffffffffffff811115610ab357600080fd5b610abf888289016107f0565b9450506040610ad088828901610844565b9350506060610ae188828901610844565b925050608086013567ffffffffffffffff811115610afe57600080fd5b610b0a888289016107f0565b9150509295509295909350565b6000610b238383610be0565b905092915050565b6000610b3682610fa1565b610b408185610fcf565b935083602082028501610b5285610f7c565b8060005b85811015610b8e5784840389528151610b6f8582610b17565b9450610b7a83610fc2565b925060208a01995050600181019050610b56565b50829750879550505050505092915050565b610ba98161100d565b82525050565b6000610bba82610fb7565b610bc48185611002565b9350610bd4818560208601611032565b80840191505092915050565b6000610beb82610fac565b610bf58185610fe0565b9350610c05818560208601611032565b610c0e81611065565b840191505092915050565b600081546001811660008114610c365760018114610c5b57610c9f565b607f6002830416610c478187611002565b955060ff1983168652808601935050610c9f565b60028204610c698187611002565b9550610c7485610f8c565b60005b82811015610c9657815481890152600182019150602081019050610c77565b82880195505050505b505092915050565b6000610cb4601983610ff1565b91507f437265617465642066696c65207375636365737366756c6c79000000000000006000830152602082019050919050565b6000610cf4602483610ff1565b91507f4164646564206e657720646174612070726f766964657220737563636573736660008301527f756c6c79000000000000000000000000000000000000000000000000000000006020830152604082019050919050565b60006080830160008301518482036000860152610d6a8282610b2b565b9150506020830151610d7f6020860182610e15565b506040830151610d926040860182610e15565b5060608301518482036060860152610daa8282610b2b565b9150508091505092915050565b60006060830160008301518482036000860152610dd48282610be0565b91505060208301518482036020860152610dee8282610be0565b91505060408301518482036040860152610e088282610d4d565b9150508091505092915050565b610e1e81611019565b82525050565b6000610e308284610baf565b915081905092915050565b6000610e478284610c19565b915081905092915050565b6000602082019050610e676000830184610ba0565b92915050565b60006020820190508181036000830152610e8681610ca7565b9050919050565b60006020820190508181036000830152610ea681610ce7565b9050919050565b60006020820190508181036000830152610ec78184610db7565b905092915050565b6000604051905081810181811067ffffffffffffffff82111715610ef257600080fd5b8060405250919050565b600067ffffffffffffffff821115610f1357600080fd5b602082029050602081019050919050565b600067ffffffffffffffff821115610f3b57600080fd5b601f19601f8301169050602081019050919050565b600067ffffffffffffffff821115610f6757600080fd5b601f19601f8301169050602081019050919050565b6000819050602082019050919050565b60008190508160005260206000209050919050565b600081519050919050565b600081519050919050565b600081519050919050565b6000602082019050919050565b600082825260208201905092915050565b600082825260208201905092915050565b600082825260208201905092915050565b600081905092915050565b60008115159050919050565b6000819050919050565b82818337600083830152505050565b60005b83811015611050578082015181840152602081019050611035565b8381111561105f576000848401525b50505050565b6000601f19601f8301169050919050565b61107f81611019565b811461108a57600080fd5b5056fea365627a7a72315820bdefcb3c78501017332b0ab807f987e7d2dc62e921caf12c3e828d8e166811a96c6578706572696d656e74616cf564736f6c63430005100040",
  "source": "pragma solidity ^0.5.1;\r\npragma experimental ABIEncoderV2; \r\n\r\ncontract RolesControl{\r\n\r\n\r\n    struct MetaData{\r\n        string data;\r\n    }\r\n    event dataProviderAdded(string);\r\n    event fileAdd(string);\r\n    function IsUserValid (string memory _CID,string memory _user,uint _startingRow,uint _endingRow,string memory _column) public view returns(bool){\r\n        for(uint i =0;i < providers.length ;i++){\r\n                if(keccak256(abi.encodePacked(providers[i].file.CID)) == keccak256(abi.encodePacked(_CID))){\r\n                    uint x = providers[i].file.accessControl.users.length;\r\n                    for(uint j = 0 ; j < x ; j++){\r\n                        if(keccak256(abi.encodePacked(providers[i].file.accessControl.users[j])) == keccak256(abi.encodePacked(_user)) && (providers[i].file.accessControl.startingRow <= _startingRow && providers[i].file.accessControl.endingRow >= _endingRow)){\r\n                            for(uint k = 0;k<providers[i].file.accessControl.columns.length;k++){\r\n                                if(keccak256(abi.encodePacked(providers[i].file.accessControl.columns[k])) == keccak256(abi.encodePacked(_column))){\r\n                                    return true;\r\n                                }\r\n                            }\r\n                        }\r\n                    }\r\n                }\r\n            \r\n        }\r\n        return false;\r\n    }\r\n    function addFile(string memory _CID,string memory _metaDataCID,string[] memory _users,uint _startingRow,uint _endingRow,string[] memory _columns) public returns(File memory){\r\n        File memory f = File(_CID,_metaDataCID,AccessControl(_users,_startingRow,_endingRow,_columns));\r\n        emit dataProviderAdded(\"Created file successfully\");\r\n        return f;\r\n    }\r\n    function addDataProvider(string memory _Address,string memory _CID,string memory _metaDataCID,string[] memory _users,uint _startingRow,uint _endingRow,string[] memory _columns) public {\r\n        File memory _file = addFile(_CID,_metaDataCID,_users,_startingRow,_endingRow,_columns);\r\n        providers.push(dataProvider(_Address,_file));\r\n        emit dataProviderAdded(\"Added new data provider successfully\");\r\n    }\r\n    // function test() public returns(string memory){\r\n    //     emit dataProviderAdded(\"hello there\");\r\n    //     return \"S7so S7soo7\";\r\n    // }\r\n    dataProvider[] private providers;\r\n\r\n    struct dataProvider{\r\n\r\n    string addr;\r\n    File file;\r\n    }\r\n\r\n    struct File{\r\n        string CID;\r\n        string metaDataCID;\r\n        AccessControl accessControl;\r\n    }\r\n  \r\n    struct AccessControl{\r\n    \r\n        string[] users;\r\n        uint startingRow;\r\n        uint endingRow;\r\n        string[] columns;\r\n    \r\n    }\r\n}",
  "sourcePath": "C:/Users/moham/Documents/GitHub/secular/blockchain/smart-contracts/contracts/RolesControl.sol",
  "compiler": {
    "name": "solc",
    "version": "0.5.16+commit.9c3226ce.Emscripten.clang"
  },
  "schemaVersion": "3.2.3",
  "updatedAt": "2020-08-23T23:28:40.427Z",
  "devdoc": {
    "methods": {}
  },
  "userdoc": {
    "methods": {}
  }
}